:020000041007E3
:10900000DFF858D072B634F0ABF91549154A164B53
:109010009A423EBF51F8040B42F8040BF8E713499B
:10902000134A144B9A423EBF51F8040B42F8040B0A
:10903000F8E7114A114B9A423EBF002042F8040B58
:10904000F9E70F4A0F4B9A423EBF002042F8040B4B
:10905000F9E70D4880470D480047000000FC032059
:109060009C981110000000207415002010AE111003
:1090700000001000B0271000B82710004ED01000DC
:109080007815002068CB01203DD30A108D800A108E
:10909000FEE700000002044B0022C25008334FF4E8
:1090A0000042C250704700BF1800018308B5431E3C
:1090B000D9B20A29024606D9064907483CF0A8FF5A
:1090C0004FF0FF3008BD054A054942F82310002043
:1090D00008BD00BFEA610E1068610E10F8010020A3
:1090E00091900710304B31494FF400621A60304ABA
:1090F00011604FF480521A602E4A01F5A0111160E0
:109100004FF400521A602C4A2C4911604FF48042EF
:109110001A602B4A01F5A61111604FF400421A6043
:10912000284A01F5342111604FF480321A60264A32
:1091300001F5A61111604FF400321A60234A01F5BF
:10914000342111604FF480221A60214A01F5A611E2
:1091500011604FF400221A601E4A01F5FE111160E1
:109160004FF480121A6011441B4A11604FF4001230
:109170001A601A4A01F5801111604FF480021A60DA
:10918000174A01F5801111604FF400021A60154A68
:1091900001F5801111604FF080721A6003F58C3375
:1091A000FC33114A1A6070471800008312066000F1
:1091B000140C0183140D0183140E01831000800030
:1091C000140F0183141001831411018314120183FD
:1091D00014130183141401831415018314160183DD
:1091E000141701831418018312C0440110B5120230
:1091F000064C105106481150064953503039029B15
:1092000053504031039B535010BD00BF2C000183CD
:1092100044000183400001830002034BC25842F422
:109220000042C250704700BF140001830002034B8C
:10923000C25822F40042C250704700BF140001839C
:1092400010B504462402FFF725FF024B4FF40042FD
:10925000E25010BD180001830C38024B43F8201077
:10926000704700BF240200200C38024B43F8201046
:10927000704700BFC00100200123013803FA00F04D
:10928000014B1860704700BF1800008310B5104BE9
:109290001A68002301219940114202D00D491A2079
:1092A000585401330B2BF5D100240134E4B220468D
:1092B000FFF7E2FF0B2CF8D10120074902F086FCF2
:1092C000064BA02283F8012302221A6010BD00BFC2
:1092D0005C020020B8160020F592071000E100E0C3
:1092E0000123013803FA00F0014B1860704700BFFA
:1092F00014000083F8B55A4B5A4D0222C3F880205F
:1093000000242B6813F4004F04F1010614D0F7B2C7
:109310003846FFF7BFFE4FF400436B600122630045
:109320009A40514B1B681A42FBD13846FFF7D8FFD1
:109330004E4B53F8243098470B2E344605F5807574
:10934000DFD14B4C2368A26811043BD51B0D063BB3
:109350000E2B34D8DFE803F0080B0E1114171A1D7A
:1093600033202326292C2F00424B1B6825E0414B3C
:109370005B6822E03F4B9B681FE03E4BDB681CE0D4
:109380003C4B1B6919E03B4B5B6916E0394B9B6911
:1093900013E0384BDB6910E0364B1B6A0DE0354BB0
:1093A0005B6A0AE0334B9B6A07E0324BDB6A04E0FE
:1093B000304B1B6B01E02F4B5B6B03B198474FF4B5
:1093C0000043E3602C4D04F58074AC42BAD1284CC4
:1093D0002368A268D2033BD51B0D063B0E2B34D865
:1093E000DFE803F0080B0E1114171A1D3320232693
:1093F000292C2F00214B1B6825E0204B5B6822E0C5
:109400001E4B9B681FE01D4BDB681CE01B4B1B6960
:1094100019E01A4B5B6916E0184B9B6913E0174B78
:10942000DB6910E0154B1B6A0DE0144B5B6A0AE028
:10943000124B9B6A07E0114BDB6A04E00F4B1B6B7E
:1094400001E00E4B5B6B03B198474FF48033E36050
:1094500004F58074AC42BBD1014B02221A60F8BD06
:1094600000E100E01C01018300000183F8010020FD
:10947000140C018324020020141A0183C00100206F
:1094800010B56CF055FE0C4A1368012B05D1002471
:1094900014606CF00DFE204610BD23B96CF008FE80
:1094A0006FF0010010BD6CF003FE0448044A054B48
:1094B0007F2167F061FF00BF640200203E620E1052
:1094C0009F620E1066980E1008B56CF031FE084BC6
:1094D0001A682AB901221A60BDE808406CF0E8BD9C
:1094E0006CF0E6FD0348044A044B8D2167F044FF0D
:1094F000640200203E620E10AB620E1066980E10E1
:1095000008B5FFF7BDFF0028FBD108BD70B50446C4
:109510000E461546FFF7F4FF304621462A4668F00E
:109520004BFBBDE87040FFF7CFBF000070B50C46A5
:1095300016460546FFF7E4FF02F020FA02F06EF946
:109540002946224630466CF0DBFD054B00220446DE
:109550001A7002F04FF9FFF7B7FF204670BD00BF49
:109560006002002008B50A4A13689BB21360DA074C
:1095700005D5002001F08EFB064B1B6806E09B071B
:1095800005D5012001F086FB024B5B68984708BDBA
:1095900000000583CC160020012808B505D90B482A
:1095A0000B494B223CF034FDFEE708B9094B00E0C3
:1095B000094B1960043B1AB11A6842F0020202E03A
:1095C0001A6822F002021A6008BD00BF92610E10F4
:1095D000B8620E101400058324000583012808B525
:1095E00007D9042811D10C4B1A6842F001021A6005
:1095F00008BD0A4B08B90A4A00E00A4A116841F05E
:10960000010111604FF08072F1E7074807496022BD
:109610003CF0FEFCFEE700BF6000058300E100E0D7
:10962000100005832000058392610E10B8620E10B1
:1096300050B9134B1A6822F001021A60DA6822F05E
:109640000102DA6001220BE001280CD10C4B1A68F0
:1096500022F002021A60DA6922F00102DA610222C3
:1096600043F8042C7047022801D1064B02E004287D
:1096700004D1054B1A6822F001021A60704700BF3E
:10968000040005833000058360000583022870B55F
:1096900004460D4616460BD904283DD1214B1A68C5
:1096A00042F0010242EA450500221D605A6070BD89
:1096B00027D018201C4902F089FA1C4BA02283F8FD
:1096C00018234FF080721A605CB9194B1E60194B59
:1096D0001A6842F001021A60DA6842EA8505DD6024
:1096E00070BD012C0BD1124B5E60124B1A6842F018
:1096F00002021A60DA6942EA8505DD6170BD022C5A
:1097000007D10D4B1A6842F0010242EA45051D607F
:1097100070BD042CC2D070BD0848094995223CF0A8
:1097200077FCFEE7600005836595071000E100E027
:10973000CC160020040005833000058392610E10D2
:10974000B8620E10022808B504D904280AD1084BC3
:10975000186808BD08B9074BFAE701280CBF064B8B
:10976000064BF5E706480749B1223CF051FCFEE7FD
:1097700068000583400005834400058334000583A9
:1097800092610E10B8620E10022001210022FFF734
:109790007DBF042001210022FFF778BF08B5024BEE
:1097A00000201B68984708BDD816002008B5024B5A
:1097B00001205B68984708BDD816002008B5024B09
:1097C00003209B68984708BDD816002008B5024BB7
:1097D0000420DB68984708BDD816002008B5024B66
:1097E00005201B69984708BDD816002008B5024B14
:1097F00006205B69984708BDD816002008B5024BC3
:1098000007209B69984708BDD816002008B5024B71
:109810002320DB69984708BDD816002008B5024B05
:1098200025201B6A984708BDD816002008B5024BB2
:1098300026205B6A984708BDD816002008B5024B61
:1098400027209B6A984708BDD816002000F01F0308
:10985000C0F34F1010B510B101284CD077E00129AA
:1098600024D11A2B05D83B4A1468994024EA0101F7
:1098700016E01B2B01D1384A0BE01C2B01D1374AD3
:1098800007E01D2B01D1364A03E01E2B0CBF354AE1
:10989000354A116821F002011160116841F400613C
:1098A0001160012202FA03F3304A22E01A2B06D893
:1098B000284A0121146899402143116015E01B2BAF
:1098C00001D125490BE01C2B01D1244907E01D2BB8
:1098D00001D1234903E01E2B0CBF224922490A680B
:1098E00042F4006242F002020A60012202FA03F32B
:1098F0001F4A136010BD012914D12BB11D4A1068F5
:10990000994020EA010107E01B4A116821F0020199
:109910001160116841F400611160012202FA03F341
:10992000164A11E02BB1134A1168984008431060A1
:1099300006E011490A6842F4006242F002020A603D
:10994000012202FA03F30E4A1360002010BD4FF00B
:10995000FF3010BD00B10083483002814C300281DD
:109960005C300281583002815430028194B000830F
:1099700098B0008304B1008350300281A4B000830A
:10998000A8B0008300F01F03C0F34F1010B10128EE
:1099900009D012E0012202FA03F309B1084900E0FC
:1099A00008490B607047984019B1074B18600020B8
:1099B0007047064B1860084670474FF0FF307047FD
:1099C00064B0008368B0008374B0008378B0008313
:1099D00000F01F03C0F34F1018B1012807D1054A4A
:1099E00000E0054A1068D84000F0010070470020F0
:1099F000704700BF70B0008360B0008300F01F03A9
:109A0000C0F34F1018B1012807D1054A00E0054AFC
:109A10001068D84000F0010070470020704700BF78
:109A2000C4B00083C0B0008300F01F03C0F34F1028
:109A300018B1012807D1054A00E0054A1068D8404E
:109A400000F0010070470020704700BFA0B0008305
:109A500090B0008300F01F03C0F34F1010B1012835
:109A600021D032E01A2B05D8012202FA03F3184A5A
:109A7000136070471B2B01D1164B0BE01C2B01D13F
:109A8000154B07E01D2B01D1144B03E01E2B0CBF1F
:109A9000134B144B1A6822F01C021A601A6842F425
:109AA00000621A60704753B90F4A116821F01C0117
:109AB0001160116841F400611160184670470B4A4B
:109AC00000FA03F31360002070474FF0FF30704737
:109AD00008B00083483002814C3002815C30028142
:109AE00058300281543002815030028118B0008316
:109AF00038B5054600F01F04FFF7ACFFC5F34F1063
:109B000010B1012823D036E01A2C05D8012303FA1E
:109B100004F41A4B1C6038BD1B2C01D1184B0BE010
:109B20001C2C01D1174B07E01D2C01D1164B03E073
:109B30001E2C0CBF154B164B1A6822F01C021A6023
:109B40001A6842F4016242F004021A6038BD64B936
:109B5000104B1A6822F01C021A601A6842F4016263
:109B600042F004021A60204638BD0B4B00FA04F4A0
:109B70001C60002038BD4FF0FF3038BD34B000838A
:109B8000483002814C3002815C30028158300281C1
:109B9000543002815030028144B0008300F01F0332
:109BA000C0F34F1010B1012821D032E01A2B05D894
:109BB000012202FA03F3184A136070471B2B01D1EC
:109BC000164B0BE01C2B01D1154B07E01D2B01D1CF
:109BD000144B03E01E2B0CBF134B144B1A6822F0DE
:109BE0001C021A601A6842F400621A60704753B986
:109BF0000F4A116821F01C011160116841F40061E5
:109C00001160184670470B4A00FA03F313600020F6
:109C100070474FF0FF30704738B000834830028102
:109C20004C3002815C300281583002815430028114
:109C30005030028148B0008338B5054600F01F045B
:109C4000FFF7ACFFC5F34F1010B1012823D036E069
:109C50001A2C05D8012303FA04F41A4B1C6038BDF2
:109C60001B2C01D1184B0BE01C2C01D1174B07E02A
:109C70001D2C01D1164B03E01E2C0CBF154B164BAF
:109C80001A6822F01C021A601A6842F4006242F05C
:109C900004021A6038BD64B9104B1A6822F01C0225
:109CA0001A601A6842F4006242F004021A60204608
:109CB00038BD0B4B00FA04F41C60002038BD4FF097
:109CC000FF3038BD04B00083483002814C3002813F
:109CD0005C30028158300281543002815030028160
:109CE00014B0008301294FEA501300F01F000FD178
:109CF0009BB213B1012B06D07047104B1A688140FC
:109D00001143196070470E4A116883400B4313E0FA
:109D100099B99BB213B1012B09D07047074B0121B0
:109D20001A6801FA00F022EA000018607047044A3D
:109D30001168834021EA0303136070478010028199
:109D4000841002812DE9F74F06280E4617469846E3
:109D50009DF830909DF834A09DF838B00F9D00F02C
:109D60007F8200F2B480032800F0CE8157D800280B
:109D700000F07681012840F0D283AF4C4FF00072A2
:109D8000C4F884200321009200F04EFCAB4B19680C
:109D90000BF00F0B21F00F014BEA0101196018685D
:109DA0004FEA0A1120F0700001F0700101431960C0
:109DB00018684FEAC91120F08000C9B20143196048
:109DC00018684FEA082120F4807001F48071014383
:109DD000196019687F0221F4007107F400770F43BE
:109DE0001F60D3F89811760621F0007106F0007616
:109DF0000E43C3F8986103F5CC7303F1BA4303F53E
:109E000002533920196841F0007119608C4B8D495B
:109E10005D6001F0DBFEA02384F839331DE20428E5
:109E200000F0CA81052840F07A83834C4FF08052BD
:109E3000C4F884200321009200F0F6FB824B1968DD
:109E40000BF00F0B21F00F014BEA010119601868AC
:109E50004FEA0A1120F0700001F07001014319600F
:109E600018684FEAC91120F08000C9B20143196097
:109E700018684FEA082120F4807001F480710143D2
:109E8000196019687F0221F4007107F400770F430D
:109E90001F60D3F88C11360721F0805106F08056F0
:109EA0000E43C3F88C6103F5C67303F1BA4303F59F
:109EB00002533C20196841F080511960604B63499E
:109EC0001D6101F083FEA02384F83C33C5E1252801
:109ED00000F07E8257D8072800F02882232840F01F
:109EE0001E83554C4FF40062C4F888200321009271
:109EF00000F09AFB564B19680BF00F0B21F00F0185
:109F00004BEA0101196018684FEA0A1120F070004D
:109F100001F070010143196018684FEAC91120F07F
:109F20008000C9B20143196018684FEA082120F483
:109F3000807001F480710143196019687F0221F477
:109F4000007107F400770F431F60D3F85411F60235
:109F500021F4006106F400660E43C3F8546103F572
:109F6000AA7303F1BA4303F502534B20196841F475
:109F700000611960324B3749DD6101F027FEA023F3
:109F800084F84B33C7E2262800F07482272840F07B
:109F9000C682294C4FF48042C4F8882003210092E5
:109FA00000F042FB2C4B19680BF00F0B21F00F0156
:109FB0004BEA0101196018684FEA0A1120F070009D
:109FC00001F070010143196018684FEAC91120F0CF
:109FD0008000C9B20143196018684FEA082120F4D3
:109FE000807001F480710143196019687F0221F4C7
:109FF000007107F400770F431F60D3F84811B603D0
:10A0000021F4804106F480460E43C3F8486103F50D
:10A01000A47303F1BA4303F502534E20196841F4C7
:10A0200080411960064B0D499D6201F0CFFDA023D0
:10A0300084F84E336FE200BF00E100E06CC00083A3
:10A04000D8160020AD97071078C00083DD97071061
:10A05000B4C000830D980710C0C000833D9807105E
:10A06000A84A4FF0807CC2F884C003218DE8041018
:10A0700000F0DAFAA44B19680BF00F0B21F00F0176
:10A080004BEA0101196018684FEA0A1120F07000CC
:10A0900001F070010143196018684FEAC91120F0FE
:10A0A0008000C9B20143196018684FEA082120F402
:10A0B000807001F480710143196019687F0221F4F6
:10A0C000007107F400770F431F60D3F89C11360628
:10A0D00021F0807106F080760E43C3F89C6103F591
:10A0E000CE7303F1BA4303F502533820196841F0E7
:10A0F00080711960854B86491D6001F067FD009AEB
:10A10000A02382F8383352E07E4A4FF0806CC2F8C8
:10A1100084C001468DE8041000F086FA7D4B196872
:10A120000BF00F0B21F00F014BEA010119601868C9
:10A130004FEA0A1120F0700001F07001014319602C
:10A1400018684FEAC91120F08000C9B201431960B4
:10A1500018684FEA082120F4807001F480710143EF
:10A16000196019687F0221F4007107F400770F432A
:10A170001F60D3F89411B60621F0806106F0806666
:10A180000E43C3F8946103F5CA7303F1BA4303F5B0
:10A1900002533A20196841F0806119605B4B5E49B7
:10A1A0009D6001F013FD009AA02382F83A33DDF898
:10A1B00004C0C2F804C0B0E1524C4FF00062C4F8D1
:10A1C00084200321009200F02FFA544B19680BF001
:10A1D0000F0B21F00F014BEA0101196018684FEADB
:10A1E0000A1120F0700001F0700101431960186835
:10A1F0004FEAC91120F08000C9B201431960186804
:10A200004FEA082120F4807001F480710143196045
:10A2100019687F0221F4007107F400770F431F6073
:10A22000D3F89011F60621F0006106F000660E43A7
:10A23000C3F8906103F5C87303F1BA4303F5025301
:10A240003B20196841F000611960304B3449DD60F2
:10A2500001F0BCFCA02384F83B33009A62605CE10F
:10A26000284C4FF00052C4F884200321009200F0E3
:10A27000DBF92C4B19680BF00F0B21F00F014BEAA7
:10A280000101196018684FEA0A1120F0700001F00E
:10A2900070010143196018684FEAC91120F080006D
:10A2A000C9B20143196018684FEA082120F4807090
:10A2B00001F480710143196019687F0221F4007173
:10A2C00007F400770F431F60D3F88811760721F059
:10A2D000005106F000560E43C3F8886103F5C473BD
:10A2E00003F1BA4303F502533D20196841F00051D0
:10A2F0001960064B0C495D6101F068FCA02384F8ED
:10A300003D33AAE700E100E068C00083D8160020D2
:10A310009D97071070C00083BD97071074C000831D
:10A32000CD9707107CC00083ED9707107E4C4FF04F
:10A330008042C4F884200321009200F075F97B4B21
:10A3400019680BF00F0B21F00F014BEA01011960A6
:10A3500018684FEA0A1120F0700001F07001014303
:10A36000196018684FEAC91120F08000C9B2014392
:10A37000196018684FEA082120F4807001F4807198
:10A380000143196019687F0221F4007107F4007716
:10A390000F431F60D3F88411B60721F0804106F007
:10A3A00080460E43C3F8846103F5C27303F1BA43D8
:10A3B00003F502533E20196841F0804119605C4B5F
:10A3C0005C499D6101F002FCA02384F83E3344E720
:10A3D000554C4FF48052C4F888200321009200F0BD
:10A3E00023F9554B19680BF00F0B21F00F014BEAC5
:10A3F0000101196018684FEA0A1120F0700001F09D
:10A4000070010143196018684FEAC91120F08000FB
:10A41000C9B20143196018684FEA082120F480701E
:10A4200001F480710143196019687F0221F4007101
:10A4300007F400770F431F60D3F85011360321F45F
:10A44000805106F480560E43C3F8506103F5A8739B
:10A4500003F1BA4303F502534C20196841F48051CB
:10A460001960334B35491D6201F0B0FBA02384F81D
:10A470004C3350E02C4C4FF40052C4F88820032198
:10A48000009200F0D1F82E4B19680BF00F0B21F061
:10A490000F014BEA0101196018684FEA0A1120F018
:10A4A000700001F070010143196018684FEAC9118A
:10A4B00020F08000C9B20143196018684FEA0821F2
:10A4C00020F4807001F480710143196019687F02E3
:10A4D00021F4007107F400770F431F60D3F84C118B
:10A4E000760321F4005106F400560E43C3F84C6184
:10A4F00003F5A67303F1BA4303F502534D2019681F
:10A5000041F4005119600A4B0E495D6201F05EFB97
:10A51000A02384F84D33009AA260002001E04FF0A0
:10A52000FF3003B0BDE8F08F00E100E080C00083A1
:10A53000D8160020FD970710B8C000831D9807109B
:10A54000BCC000832D980710024A01231360024A01
:10A55000137070472CC300830817002008B5034B05
:10A560001B6803B19847002008BD00BF10170020EA
:10A5700008B5034B1B6803B19847002008BD00BF16
:10A5800004170020054B0F225A6400225A619A6179
:10A590004FF0FF32DA61FF221A6270477C9100832C
:10A5A00008B50E4B5A6822F000425A60A3F6CC73ED
:10A5B0001A6822F007021A60FFF7E4FF084B1A68D6
:10A5C00042F040421A60074B1A6842F004021A60D7
:10A5D000BFF34F8F30BFBFF36F8F08BD7C910083F7
:10A5E000B881008310ED00E008B51F20054901F097
:10A5F000EDFA054B202283F81F234FF000421A602A
:10A6000008BD00BF49A5071000E100E0014B187824
:10A61000704700BF08170020024B186800F0004088
:10A62000704700BF34C300833C2800F2FE80DFE89F
:10A6300010F03D003F004100430045004700490045
:10A640004B00FC00FC00FC00FC00FC00FC00FC00DB
:10A65000FC00FC00FC00FC00FC00FC00FC00FC001A
:10A66000FC004D005500570059006A007900860033
:10A670009500A500B500B700B900BB00BD00C6003D
:10A68000CF00FC00FC00FC00FC00FC00FC00FC0017
:10A69000FC00FC00FC00FC00FC00FC00FC00FC00DA
:10A6A000FC00FC00D800E100EA00F3005F4B0EE084
:10A6B0005E4B97E05D4B9EE05C4BA5E05B4BACE0F6
:10A6C0005A4B74E0594B7BE0584B82E0584B1A6868
:10A6D00022F00F021A601A681143A5E0544B81E082
:10A6E000534B88E0524B1A6822F470421A601A6881
:10A6F000022942EA01321A6003D00439012900F22A
:10A7000094801B2047E04A4B1A6822F470221A609A
:10A710001A6842EA0142043901291A6000F2858070
:10A720001C2038E0424B1A6822F470021A601A6842
:10A73000062942EA01521A6077D11D202BE03C4BDA
:10A740001A6822F070621A601A68042942EA0162EB
:10A750001A6001D0072968D11E201CE0344B1A680A
:10A7600022F070421A601A6842EA017201F0FD019B
:10A7700004291A6008BF1F2057D10CE02D4B1A681E
:10A7800022F00F021A601A680A4301F0FD01042941
:10A790001A604AD120200021FFF758B8254B21E04C
:10A7A000244B28E0234B2FE0224B36E0214B1A6844
:10A7B00022F470021A601A6842EA015134E01D4B1B
:10A7C0001A6822F070621A601A6842EA01612BE08E
:10A7D000184B1A6822F070421A601A6842EA017136
:10A7E00022E0154B1A6822F0F0021A601A6842EA59
:10A7F000011119E0104B1A6822F470621A601A688D
:10A8000042EA012110E00C4B1A6822F470421A60EF
:10A810001A6842EA013107E0074B1A6822F47022F5
:10A820001A601A6842EA01411960704720300281BB
:10A830002C300281303002813C30028108B50B4B54
:10A8400098420ED179B90A4B1B680BB1084698475C
:10A85000002001460246012300F00CF900F060F9E7
:10A86000FEE7022008BD002008BD00BF2606162016
:10A8700014170020002070470020704738B5144B93
:10A880001A6842F0010205461A600024114A126853
:10A89000D207A3B206D42020013400F0AFF9642C13
:10A8A000F4D123460C4A12682A600C4A116801212F
:10A8B000116052F8141C21F00101642B42F8141CA1
:10A8C00015BF2B6800230020FE202B6040B238BD4E
:10A8D00000F00F8310F00F8308F00F8314F00F8344
:10A8E000FEF7B4BFFFF74EB870B59DF810609DF845
:10A8F00014509DF81840049605950694BDE87040E4
:10A90000FFF720BAF8B5044608460D46FFF78CF865
:10A9100007462846FFF772F806462846FFF758F81C
:10A920002560A071277166712046F8BD10B5012120
:10A930000446FFF7D7F92046BDE81040FFF77CB981
:10A9400010B501210446FFF7CDF92046BDE81040BF
:10A95000FFF7CEB810B501210446FFF7C3F9204632
:10A96000FFF71CF92046BDE81040FFF773B8000060
:10A9700040F201130C4A013B126812D09207F9D53C
:10A980000A4BC6221A609A225A6059229A60A32260
:10A99000DA6057221A6167225A61D2229A61002036
:10A9A00070470120704700BF00010C8304000C8336
:10A9B00008B5FFF7DDFF00BB104BDA6942F001027A
:10A9C000DA619A6A22F007029A62DA6922F00102D9
:10A9D000DA615A6A22F080025A625A6A22F0200230
:10A9E0005A625A6A22F010025A625A6A22F00F0220
:10A9F0005A625A6A42F010025A6208BD04000C837F
:10AA000008B5FFF7B5FF40B9044B5A6A42F010028F
:10AA10005A62DA6A22F00102DA6208BD04000C838D
:10AA20000C4B4FF48062C3F880200B4B1A6822F065
:10AA3000F0021A601A6842F080021A60074B1A6826
:10AA400042F002021A6053F8302C22F0020243F85E
:10AA5000302CFEE700E100E02030028190B000835E
:10AA600008B5016000F012F90A20BDE8084000F0C6
:10AA7000C5B80000F7B51D46244B1C680F461646A6
:10AA800024F47F4468B940F207100DF10701012258
:10AA900001F088FC1E4B1B689B0524F0080405D4BC
:10AAA0000BE044F4085444F0080415E09DF8073026
:10AAB000DB0902D144F408540EE00A20154901F0E4
:10AAC00085F81548A02380F80A3344F408544FF45D
:10AAD000806344F00804036017B924F0040401E023
:10AAE00044F0040416B924F0020101E044F002012C
:10AAF0000648FFF7B5FF094B1A68012D0CBF42F459
:10AB0000803222F480321A6003B0F0BD3000088336
:10AB1000C081008321AA071000E100E07C9100833E
:10AB2000024841F20921FFF79BBF00BF44000883A0
:10AB300008B53C285CD8DFE800F01F552123252705
:10AB4000292B5B5B5B5B5B5B5B5B5B5B5B5B5B5BB7
:10AB50005B5B2D2F31333537393B3D3F4143454713
:10AB6000494B5B5B5B5B5B5B5B5B5B5B5B5B5B5B57
:10AB70005B5B5B4D4F515300002034E0022032E01C
:10AB8000032030E004202EE005202CE006202AE0FF
:10AB9000072028E0182026E0192024E01A2022E0CF
:10ABA0001B2020E01C201EE01D201CE01E201AE0BF
:10ABB0001F2018E0202016E0212014E0222012E0BF
:10ABC000232010E024200EE025200CE026200AE0BF
:10ABD000272008E0392006E03A2004E03B2002E08C
:10ABE0003C2000E00120C9B2FFF71EFD002008BD97
:10ABF0004FF0FF3008BD0220FEF7A4BD10B504469B
:10AC0000FFF7F9FF01340444FFF7F5FF001B0028AC
:10AC1000FADB10BD0420FEF795BDC300191A0A2205
:10AC2000B1FBF2F1062210B542436424B2FBF4F208
:10AC30000A4402EB40104FF47A72B3FBF2F318446B
:10AC4000BDE81040FFF7DABFF8B504460F461646D8
:10AC50001D46FEF7EDFC14B9084B1C6002E0084BE2
:10AC600000221A6020462A460121FEF70FFD2046E9
:10AC700039463246BDE8F840FEF78EBC1000058329
:10AC800020000583FEF7AABCFEF7D2BCFEF77CBD10
:10AC9000FEF77FBD08B9012202E0012802D102229D
:10ACA000014B1A60704700BF0000058310B51C4BB4
:10ACB0001C4A19681368C1F3423123F4FF63013958
:10ACC000104623F00703184A062905D8DFE801F0EB
:10ACD00013090E13131313001449116043F01003EA
:10ACE0000DE01349116043F0400308E01149116081
:10ACF00043F4806303E01049116043F40073036080
:10AD00000E4B12681A6032F011FB0D4B18684FF4AD
:10AD10007A73B0FBF3F0BDE8104032F0F3BA00BF35
:10AD2000C0810083B88100832C170020002D3101E1
:10AD300080BA8C0100751903005A6202281700209E
:10AD40006C0A0020014B1868704700BF2C170020C8
:10AD5000014B1868704700BF28170020104B82B0C5
:10AD60001A680192019AC2F301720192019AA2B982
:10AD70001A680192019A22F080720192019A42F0BF
:10AD800000520192019A1A601A680192019A02F027
:10AD900000620192019A002AF6D002B0704700BF0B
:10ADA000B8810083224B82B01A680192019AC2F3E3
:10ADB00001720192019A032A31D01A680192019A14
:10ADC00022F480220192019A22F080720192019A6B
:10ADD0000192019A1A601A680192019A22F0405277
:10ADE0000192019A22F080720192019A42F040523F
:10ADF0000192019A1A601A680192019A02F0806227
:10AE00000192019A002AF6D0094A12680192019A29
:10AE100022F480220192019A22F080720192019A1A
:10AE200008B142F480220192019A1A6002B0704780
:10AE3000B88100830F4B82B01A680192019A22F008
:10AE400040520192019A22F080720192019A01927D
:10AE5000019A1A601A680192019A22F480220192E2
:10AE6000019A22F080720192019A0192019A1A606D
:10AE700002B07047B881008307B5154B1A6801927C
:10AE8000019A22F007020192019A0192019A1A6036
:10AE90001A680192019A22F440420192019A0192A9
:10AEA000019A1A6001991A689142FBD1094B1A68FC
:10AEB000094B1A6032F03AFA084B18684FF47A736B
:10AEC000B0FBF3F032F01EFA03B05DF804FB00BFF4
:10AED000B08100832C170020281700206C0A002066
:10AEE00007B50120FFF75EFF1D4B1A680192019A1A
:10AEF00022F440420192019A42F480420192019A66
:10AF00001A60184601990268154B9142FAD11A68E5
:10AF10000192019A22F47C720192019A42F080021D
:10AF20000192019A1A601A680192019A22F00702AE
:10AF30000192019A42F004020192019A1A60094BAF
:10AF4000094A1A6032F0F2F9084B18684FF47A7324
:10AF5000B0FBF3F032F0D6F903B05DF804FB00BFAC
:10AF6000B08100832817002000B0710B6C0A00200C
:10AF7000054B064A002814BF1046184643699B0635
:10AF8000FCD50160704700BF00000383000004830C
:10AF90002DE9F04F3F4C8DB0914680460F469A46C2
:10AFA0006D4604F11002206861682B4603C3083423
:10AFB00094421D46F7D120681860A388364CAB80B8
:10AFC00006AD04F11003206861682E4603C60834FC
:10AFD0009C423546F7D1A3882068B3803060FFF7E4
:10AFE000B1FE2E4B2E4A18602E48B8F1010F18BF43
:10AFF000104603224262C66846F08001C160D3F861
:10B0000000B00A23BBFBF7F52C0A03FB0BFB013452
:10B01000BBFBF7F7B5FBF4F8B7FBF5F503FB1855E9
:10B0200008F1FF31B5FBF3F7032903FB1753E5B232
:10B03000C4F30724056018BF4FEA510C44608162D5
:10B040000CA901EB430300F10C0233F8181C33F890
:10B05000303C14BF0CF1FF3C4FF0000CC0F82CC08A
:10B06000816543654723166083601188BDF85830B9
:10B0700021F003010904090C41EA090121F004014E
:10B08000194321F0380141EA0A0AA2F800A00DB0E4
:10B09000BDE8F08F94660E10AA660E1030170020DF
:10B0A000000003830000048313B5002304460093CB
:10B0B0004FF4E1310322FFF76BFF0CB9054B02E0BF
:10B0C000012C04D1044B1A6842F001021A6002B04C
:10B0D00010BD00BF4C0003834C00048340B909B18C
:10B0E0000B4B07E00B4B0C491B889BB2136009E02C
:10B0F00019B10A4B1B889BB207E0094B09491B8811
:10B100009BB21360098889B25B1A1360704700BF55
:10B11000380F0183440E0183380E018338110183F7
:10B12000441001833810018310B50023934209D0E5
:10B1300008B9054C02E0012802D1044C2478CC5413
:10B140000133F3E710BD00BF00030079000500796B
:10B1500013B50C4611461A46034638B98DE80C0063
:10B1600020460E22FEF742F80E2009E001280CD1FD
:10B1700000230092204601931022FEF737F810209A
:10B1800002B0BDE81040FEF75BB802B010BD37B5A5
:10B19000069D0C461146079A38B901922046009543
:10B1A0000F22FEF723F80F2008E001280BD10192AF
:10B1B000204600951122FEF719F8112003B0BDE8D2
:10B1C0003040FEF73DB803B030BD08B90F2002E0B3
:10B1D000012802D11120FEF73FB8704708B90F20AF
:10B1E00002E0012802D11120FEF73EB870470000AE
:10B1F000044A054B002814BF1046184601228264F9
:10B20000704700BF0000048300000383094B0A4A13
:10B21000002814BF104618460022C368C260426866
:10B2200092B29BB242F002024260C3600123836487
:10B23000704700BF0000038300000483074B084AE7
:10B24000002818BF134614BF012000209B6803F09C
:10B250003F03022B01D100F07DBE70470000038345
:10B2600000000483134B144A002814BF10461846EC
:10B27000BF221023C26080218360002303618361A9
:10B28000C16003604360C36043608360C2608360E9
:10B29000C3600361C36143628362C3624363C36388
:10B2A000036443648364C364036543658365036621
:10B2B000704700BF00000383000004830CB430B566
:10B2C00085B008AB054653F8044B03930A46019337
:10B2D00000940548294602233AF01EFC05B0BDE85B
:10B2E000304002B0704700BF6C0200200CB430B593
:10B2F00085B008AB054653F8044B03930A46019307
:10B3000000940548294600233AF006FC05B0BDE844
:10B31000304002B0704700BF6C020020F0B587B02B
:10B320000CAC074654F8045B03940E468DE82800E5
:10B330000292044805943946324600233AF070FCE4
:10B3400007B0F0BD6C02002037B5104C0025257009
:10B35000069D00950125019589B29BB23AF06AFFDE
:10B36000002803DA0A480B4A642107E00A4B2278D6
:10B3700042B9013BFBD10648084A6C21FFF79EFF0A
:10B38000FF2000E0002040B203B030BD35170020A0
:10B39000EC660E10FB660E10010000100D670E101B
:10B3A000054B064940220120C3F88020C3F88021C4
:10B3B00008701A60704700BF00E100E035170020F8
:10B3C00010B56AF0B5FE074B1C7824B16AF070FE28
:10B3D0006FF0630010BD01221A706AF069FE20460A
:10B3E00010BD00BF341700202DE9F04F89B00D4685
:10B3F00090461F469DF848B0044610B109B102B10D
:10B400001BB94B484B4A9A210EE04B6803F00F09D9
:10B41000C9F11002D2B21E090392134442689A4243
:10B4200006D24348444AA321FFF748FFFF207AE0B1
:10B43000FFF7C6FF4149062000F0C8FB404BA022A1
:10B4400083F8062340221A60D8F8001098F8040008
:10B45000DFF8F4803AF0E0FEBBF1010F07BF584679
:10B460005946012000213AF0C3FE002E35D0009746
:10B470004FEA061A94E803002A685346FFF764FF70
:10B48000014610B12A48BC2120E0102204A866F031
:10B49000B7FB29684A46514404A866F08DFB03991E
:10B4A00004A80A46484466F0ABFBBBF1010F2068D4
:10B4B00004BFAAF110073F1800975044616804AA1E
:10B4C0001023FFF741FF40B31948D2211D4AFFF76F
:10B4D000F5FE002388F80030A8E73146102204A8C2
:10B4E00066F08EFB95E8060004A866F065FB0399FC
:10B4F00004A80A46484466F083FB009794E80300DA
:10B5000004AA1023FFF720FF38B109480D4ADF21B4
:10B51000FFF7D4FE88F8006088E701363601002086
:10B52000666088F8000040B209B0BDE8F08F00BF47
:10B530005F680E1027670E1033670E10A1B3071057
:10B5400000E100E050670E10341700202DE9F341B0
:10B550000D46174698469DF82060044610B109B183
:10B5600002B12BB94148424AF521FFF7A7FE5DE041
:10B570004B681A0703D03D483E4AFA2116E042685C
:10B58000A3F110018A4206D2009338483A4AFF21BB
:10B59000FFF794FE4AE07B6823F00802102A08D0E7
:10B5A000202B06D03148354A40F20511FFF786FEC0
:10B5B0003CE0FFF705FF3249062000F007FB314B66
:10B5C000A02283F8062340221A60396838792E4F6A
:10B5D0003AF022FE012E0BBF3146002130460120F9
:10B5E0003AF006FE00223A70A388CDF8008001925E
:10B5F000A988286822683AF01DFE002803DA23484B
:10B60000234A802107E0234B3A78A2B9013BFBD1C2
:10B610001E48214A8821FFF751FE204A13484FF463
:10B620008C71FFF74BFE1E4B00221A70FF2040B2B8
:10B6300002B0BDE8F08123686A681A48991811F8C9
:10B64000017C1949012E14BF06460E468DE84400C0
:10B650000648164A4FF48F71FFF760FE6B68DF1BD8
:10B660000F4B676000201870E1E700BFDC660E102A
:10B6700027670E1065670E1089670E10CE670E10D3
:10B68000A1B3071000E100E03517002050680E104C
:10B69000FB660E100100001005680E103C680E10CD
:10B6A000341700204FED0E102BED0E101F680E10FA
:10B6B00070B586B006460D46144602A80021102239
:10B6C00066F09EFA0023009330462946224602ABDC
:10B6D000FFF78AFE06B070BD70B586B006460D460F
:10B6E000144602A80021102266F08AFA0023009373
:10B6F00030462946224602ABFFF728FF06B070BD50
:10B7000010B56AF015FD1B4B1A7802F0FF041AB150
:10B710006AF0CEFCFA202AE001221A706AF0C8FC16
:10B72000154B5A6822F01E025A605A6842F0130202
:10B730005A605A6822F01E025A605A6842F00302A8
:10B740005A601C60DC620D4B1C600D4B1C60234674
:10B750009A0002F1AA72002010601064094A02EBFC
:10B76000C30142F833000133102B4860F0D140B2DE
:10B7700010BD00BF36170020000053013C17002009
:10B780003817002040170020154B5A6822F01E027F
:10B790005A605A6842F013025A605A6822F01E0238
:10B7A0005A605A6842F003025A6000221A60DA6254
:10B7B0000C4B1A600C4B1A6013469A0002F1AA72E5
:10B7C000002010601064094A02EBC30142F8330004
:10B7D0000133102B4860F0D1054B1870704700BF43
:10B7E000000053013C1700203817002040170020AC
:10B7F00036170020074A53789B0708D0064B196874
:10B8000041F00D0119601B681360002000E0FB206F
:10B8100040B270473C170020000053010E4B1A68DD
:10B82000D2070FD55A6822F01E025A605A6842F0B9
:10B8300013025A605A6822F01E025A605A6842F097
:10B8400003025A60044B1A6822F001021A601A6857
:10B85000024B00201A607047000053013C17002083
:10B860000F2811D80B4B00F5804253F82220D20547
:10B870000CD5DA6A012101FA00F01043D862DA6AC5
:10B88000054B00201A6002E0FC2000E0FF2040B2DF
:10B89000704700BF00005301381700200F2812D84E
:10B8A0000A4B0122D96A824021EA0202DA62DA6A8C
:10B8B000074B1A60074A002342F8303002EBC00001
:10B8C0004360184600E0FC2040B27047000053017E
:10B8D000381700204017002003280FD8094B1A689A
:10B8E00022F440721A601A6842EA00221A6000B913
:10B8F00018601A68044B00201A6000E0FB2040B278
:10B90000704700BF000053013C1700200F2810B5FE
:10B9100026D839B30C68C4F30B0313B11348F821CC
:10B9200005E04A68C2F30B022AB11048FE21104A12
:10B93000104B65F021FD830003F1AA731C6012C94E
:10B9400021441964196841F4807119600A491C681E
:10B9500041F8304001EBC0001B6C4360104602E030
:10B96000FC2000E0F92040B210BD00BF7C680E1042
:10B97000AE680E1066980E104017002008B56AF0E9
:10B98000D7FB0A4B5A6822F01E025A605A6842F0EE
:10B9900013025A605A6822F01E025A605A6842F036
:10B9A00003025A606AF084FB002008BD00005301C6
:10B9B00030B50023084A12F8135085424FEA430479
:10B9C00004D12244002053780B7030BD01330B2B7F
:10B9D000F0D14FF0FF3030BDD4680E10C3000A2BF9
:10B9E00001D8002003E083000A2B03D8012008704F
:10B9F000184618E043000A2B01D80220F7E70A286E
:10BA000001D803230EE043080A2B01D80420EEE7F7
:10BA100083080A2B01D80520E9E7C0080A2894BF4B
:10BA2000062307230B7010607047000008B5002341
:10BA30000A4A02EB43025278824204D001330B2BB4
:10BA4000F6D14FF0FF330C2205495343CA18CB5CA3
:10BA50001BB153680BB19068984708BDD4680E10AD
:10BA6000C01700202DE9F04186B00F460DF11201FC
:10BA7000FFF79EFF28B13548354AD921FFF71EFC54
:10BA80005EE09DF8123037B93048324ADD21FFF7C9
:10BA900015FCFE2055E0304A02EB400252789A42F3
:10BAA00004D001300B28F6D14FF0FF302B4B0C2285
:10BAB00002FB0030002166F0A3F83B789DF812806D
:10BAC000042B3DD8DFE803F0031106090D00002424
:10BAD00001250CE00024012501E00024254626462E
:10BAE00006E0002501242E4602E00024254601261A
:10BAF0000DF1130105AA7868FFF770FF059A9DF80C
:10BB00001310174B009401916AB9029203933146C6
:10BB100040462B46FEF7E8FEC6210446114A12486D
:10BB2000FFF7CCFB09E0D2B20292039340463146C4
:10BB300001222B46FEF7D8FE0446E017C0B200E013
:10BB4000FF2040B206B0BDE8F08100BFC6680E100D
:10BB5000EA680E100A690E10D4680E10C017002093
:10BB60002DBA07101F690E105B690E1073B50D46D4
:10BB70000DF107011646FFF71BFF9DF8073030B1A6
:10BB80000E480F4AF121FFF799FBFF2013E00D4A01
:10BB900002EB400252789A4204D001300B28F6D1D1
:10BBA0004FF0FF30084B0C2250431C1801226560F7
:10BBB000A6601A54002040B202B070BD40690E1059
:10BBC000EA680E10D4680E10C017002070B5C6B217
:10BBD0005F2E04460D4617D8B1B16AF0A9FA06F0F7
:10BBE0001F066209012303FA06F66032084B43F888
:10BBF0002260084B43F8345003EBC4040025656011
:10BC00006AF056FA284600E0FE2040B270BD00BF40
:10BC100000E100E04418002010B504466AF088FAFC
:10BC20002060002010BD08B56AF042FA002008BD6F
:10BC300008B500206AF05CFAC01708BD08B56AF0C4
:10BC400067FAC01708BD08B500F18050FDF75EFC2B
:10BC5000002008BD08B50B4611461A46FDF766FCE4
:10BC6000C01708BD3C2808B508D80F2908D8FEF72A
:10BC70005FFF0028B4BFFD20002002E0FE2000E0AE
:10BC8000FF2040B208BD002070470020704713B568
:10BC900003460C4651B13C280AD868461946FEF7BF
:10BCA00031FE9DF805302370002002E0FF2000E007
:10BCB000FE2040B202B010BD3C2808B506D8FEF701
:10BCC00011FE0028B4BFFD20002000E0FE2040B29D
:10BCD00008BD3C2813B503460C4609D851B1684647
:10BCE0001946FEF70FFE9DF806302370002002E093
:10BCF000FE2000E0FF2040B202B010BD3C2808B595
:10BD000006D8FEF7EDFD0028B4BFFD20002000E0BE
:10BD1000FE2040B208BD3C2813B503460C460CD8A3
:10BD200069B168461946FEF7EDFD9DF80430003311
:10BD300018BF01232370002002E0FE2000E0FF2056
:10BD400040B202B010BD3C2810B504460BD8FEF737
:10BD500001FE002809DB2046FEF7E8FD0028B4BFFD
:10BD6000FD20002002E0FE2000E0FD2040B210BDDA
:10BD70003C2810B504460BD8FEF7ECFD002809DB83
:10BD80002046FEF7DDFD0028B4BFFD20002002E0C4
:10BD9000FE2000E0FD2040B210BD3C2808B506D8CA
:10BDA000FEF7D8FD0028B4BFFD20002000E0FE20F3
:10BDB00040B208BD70B503460C4670B91F4B93F8EE
:10BDC0002020012A1D4601D0FDF7DEFCFEF713FFFF
:10BDD0000123206085F8203017E0012817D1174B88
:10BDE00093F84020012A1D4601D0FDF7D2FCFEF752
:10BDF00011FF0646FEF7ACFF114BB0FBF3F0B6FBAC
:10BE0000F0F62660012385F84030002013E0022878
:10BE10000BD10A4B93F84020012A1D4601D0FDF7B3
:10BE2000B8FCFEF7F7FE2060ECE70648064A8D21D5
:10BE3000FFF744FAFF2040B270BD00BF441B002052
:10BE400040420F00346A0E10BD690E101AB1081A74
:10BE50001060002000E0FF2040B2704708B5FEF7F8
:10BE6000A7FD01280CBF6FF00100002008BD0000F5
:10BE700008B5064B984206D1FEF7C2FD012814BF53
:10BE80000020FE2000E0FF2040B208BDBEBABEBACE
:10BE9000012811D871B10B780C2B0DD8CB78022B5F
:10BEA0000AD88B78012B07D8487803288CBF00204C
:10BEB000012070470846704700207047124B37B585
:10BEC000302404FB00340546143461B101AA012179
:10BED000FFF704F96269019B934213D3002D14BF4D
:10BEE00011200F200CE001AAFFF7F8F8A3686268A0
:10BEF000D21A019B934205D3002D14BF10200E20AF
:10BF0000FDF794F903B030BD981B002008B5074B2E
:10BF100093F8352022B19A6B12B10220D96B904769
:10BF200001200021BDE80840FFF7C8BF981B002092
:10BF300008B5074B5A7922B19A6812B10220D96824
:10BF4000904700200146BDE80840FFF7B7BF00BF9B
:10BF5000981B002073B5124B1D5C0446DDB901A887
:10BF6000FFF75AFE6A4620462946FFF7B7F80D4B01
:10BF7000302202FB04339A69009B9A4207D10A4E91
:10BF8000335D23B1094B185D00F055FA3555019822
:10BF9000FFF749FE01E000221A5402B070BD00BF55
:10BFA000F81B0020981B0020941B0020FA1B002087
:10BFB00008B1012801D1FEF7DBBF7047F8B516467E
:10BFC000054618B1012801D00020F8BD0029FBD09A
:10BFD0000C468F19BC4205D0284614F8011BFEF709
:10BFE000C7FFF7E73046F8BD012873B506460D4692
:10BFF000144618D8C9B1D2B1012101AAFFF76EF8D1
:10C000000198844228BF0446294630462246FFF75D
:10C010008BF8019B9C420AD1002E14BF11200F20E7
:10C02000FDF7FAF803E0002002E0084600E02046B1
:10C0300002B070BD07B500230128019305D8012186
:10C0400001AAFFF74BF8019800E0184603B05DF82D
:10C0500004FB000010B5094C94F8353043B10120C1
:10C06000FFF7E8FF20B1A36B13B10120E16B984704
:10C0700001200146BDE81040FFF720BF981B0020BB
:10C0800010B5094C637943B10020FFF7D3FF20B10D
:10C09000A36813B10120E168984700200121BDE8A1
:10C0A0001040FFF70BBF00BF981B0020012870B5A0
:10C0B000044637D8002935D01C4B302505FB00330A
:10C0C000DA60012299605A71194B53F820502946C1
:10C0D000FFF77BF820462946FFF780F82CB90E20A1
:10C0E0001449FDF7B9F80E2004E010201249FDF7BD
:10C0F000B3F81020114EFDF78FF8114B114930574E
:10C1000001251D55FFF762FD2046FFF77FF8335DDF
:10C110000D4A59B2490903F01F039D4042F82150CE
:10C12000002000E0FC2040B270BD00BF981B002042
:10C130009C6A0E1031BF07100DBF0710C0660E10AD
:10C14000F81B00203DB2071000E100E02DE9F041AE
:10C1500090B080460E46FFF79BFE002849D0274B43
:10C16000274C302000FB083031460422013065F0B6
:10C1700023FD0FCC03AD0FC50FCC0FC50FCC377807
:10C1800096F803C00FC5224610A800EB870752F8A7
:10C19000040F236851682B60757857F834EC03ABB3
:10C1A00003C310A901EB450503AF35F8342C254630
:10C1B00055F80C0F696803C72989198010A800EB8E
:10C1C0004C0354F8160F33F8343CB1780390A08830
:10C1D000ADF8100010A800EB410118F1000031F893
:10C1E000341C009118BF01207146FEF7D1FE0020DB
:10C1F00000E0FC2040B210B0BDE8F081981B0020A8
:10C20000506A0E102DE9F04104460F46FFF740FE3C
:10C2100008B9FC2532E030221A4E02FB04F506EB89
:10C220000508715D49BB404665F0EAFC39460422C9
:10C2300008F1010065F0C0FC01237355261C18BFEE
:10C2400001263046FFF70EF83046FEF72DFF204658
:10C250003946FFF77BFF05460028DAD13046FEF766
:10C26000C7FF094B1D55094B1D55094B53F82400B9
:10C2700000F0D2F8074B185500E0FD2568B2BDE884
:10C28000F08100BF981B0020F81B0020941B0020A9
:10C29000D0660E10FA1B002001282DE9F743054651
:10C2A0000C460FD871B1CB6863B10B694A699342F0
:10C2B00008D38A69934205D30B681BB14A688B681F
:10C2C0009A4204D2FC2040B203B0BDE8F083174884
:10C2D00030236B43C2180126167402F114001C228D
:10C2E00065F06AFCFCF7D2FFFCF7FCFED4F80C808A
:10C2F0002769A669D4F81490FEF72AFD0C4BCDF8F7
:10C300000090B0FBF3F041F2883202FB00F301939E
:10C31000284641463A463346FEF739FF284694E818
:10C320000E00FEF715FF0020CDE700BF981B002090
:10C3300040420F0030B5040726D1144C000443B925
:10C340002368134D1D4045F0804545F040052843C6
:10C3500005E025680E4B2B4043F0804318432060D6
:10C3600023685B00FCD4094B1B68C3F34073136064
:10C37000084B1B680B60084B1B684B60074B1B6826
:10C380008B60074B1B68CB6030BD00BF0800078186
:10C390003FFF00BC3000078134000781380007816F
:10C3A0003C0007812DE9F043804687B014460D46D6
:10C3B00061B3184B1E6816F0804606D0032026E0B5
:10C3C000A41A16441544E4B2F6B2ECB106EB080028
:10C3D00000F00F070123C01B02A901AAFFF7AAFF63
:10C3E000019BC7F110095FFA89F9002BE6D0A1453E
:10C3F00034BF4A46224600239342E1D202A939447F
:10C40000C95CE9540133F7E7204600E0012007B09A
:10C41000BDE8F0830000078110B5044666F03BFCE0
:10C42000C1B22046BDE8104000F036B808B500F0B3
:10C43000A1F8002008BD08B500F078F8002008BD7C
:10C4400008B500F04FF8002008BD00F0B3B80000B8
:10C4500038B569F06DFE084B1C680025012C08BF3B
:10C460001D6000D01CB969F023FE204638BD69F07C
:10C470001FFE284638BD00BF7C02002008B569F0C9
:10C4800057FE044B1A680AB901221A60BDE8084039
:10C4900069F00EBE7C02002038B50546FFF7D8FFD4
:10C4A00000230C4A52F82310DCB231B90A4942F891
:10C4B000235048780130487008E00133202BF0D138
:10C4C0000648074A7721FEF711FFFF24FFF7D6FF42
:10C4D000204638BD881C00207C1C0020A46A0E1059
:10C4E000B86A0E1010B50446FFF7B2FF054B5A7834
:10C4F000013A5A70044B002243F82420BDE8104052
:10C50000FFF7BCBF7C1C0020881C002010B504462F
:10C51000FFF79EFF044B53F82440003418BF01245A
:10C52000FFF7ACFF204610BD881C002038B505463B
:10C53000FFF7ECFFB0B11F2D14D869F0F9FD0B4ADD
:10C5400052F825405CB1631E42F82530012433B90E
:10C55000074B5A6804FA05F522EA05025A6069F0A9
:10C56000A7FD00E00024204638BD00BFFC1B0020D2
:10C570007C1C002038B50446FFF7C8FFA8B11F2C6B
:10C5800012D869F0D5FD094B53F82420013243F845
:10C590002420074B01255A6805FA04F422435A6007
:10C5A00069F086FD284638BD002038BDFC1B002000
:10C5B0007C1C0020014B5868704700BF7C1C002089
:10C5C0000520704700487047696B0E10004870479F
:10C5D000606B0E10052070470020704730B50B4D82
:10C5E0000FCD8BB06C460FC40FCD0FC495E8030080
:10C5F00084E80300064B00A91944064A525843F840
:10C60000042B054A9342F6D10BB030BD706B0E106F
:10C6100020300281E0CFFD7E48300281044B4FF094
:10C6200060421A60034A1A6100221A62704700BF12
:10C6300090B00083870000062B4B6FF060421A60B9
:10C640002A4A5A6040F2FF129A60294B1A6822F077
:10C6500002021A601A6842F002021A601A6842F472
:10C6600000621A605A6822F002025A605A6842F068
:10C6700002025A605A6842F400625A605A6922F013
:10C6800002025A615A695A615A6942F400625A6157
:10C6900010331A6822F002021A601A681A601A68C7
:10C6A00042F400621A6053F8042C22F0020243F8AC
:10C6B000042C53F8042C43F8042C53F8042C42F4B3
:10C6C000006243F8042C53F8082C22F0020243F8CD
:10C6D000082C53F8082C43F8082C53F8082C42F483
:10C6E000006243F8082C704700B1008378FFFFF91F
:10C6F00048300281104B44221A6050221A610022F5
:10C700001A620E4B1A6822F01C021A605A6822F054
:10C710001C025A605A6922F01C025A611A6922F0FE
:10C720001C021A61DA6822F01C02DA609A6822F0B0
:10C730001C029A60704700BF00B00083483002813D
:10C74000044B054A1A60054A1A6140F2FF121A6248
:10C75000704700BF30B0008300FFFF0008FFFFF903
:10C76000024A0023136013611362704760B00083B4
:10C7700008B5FFF733FFFFF751FFFFF75DFFFFF746
:10C78000B9FFFFF7DDFFBDE80840FFF7E9BF10B5CF
:10C7900086B0089C0094099C02902488039104921E
:10C7A000684602A904AA01940593FEF795FF06B016
:10C7B00010BD000013B5064B002400941868032137
:10C7C0002246234637F04AFE204602B010BD00BF85
:10C7D000081D002037B5064D286838B100240094A4
:10C7E00005212246234637F039FE2C6003B030BDC8
:10C7F000081D002013B50A4B1A681C4622B90948C7
:10C800000949972238F044FB246836F0B3FC002332
:10C81000024600932046012137F020FE02B010BDF1
:10C82000081D0020C26B0E10DA6B0E1010B5044606
:10C8300054F02AFF03682046984710BDF0B502283F
:10C84000A5B005460FD0032879D0012840F081809B
:10C8500000F084F94048414B0093846840498522A8
:10C860000023A04775E04022202308923D4907930A
:10C8700007AA099354F0ACFE374C064648B13A4B30
:10C8800000932046A668394954222B46B047AE2073
:10C8900050E0374D079B85F889300320294608AAC8
:10C8A00054F096FE40B1334B0093A7682F492046C1
:10C8B0005D220123B8470896089B2F4985F88A30E6
:10C8C000052009AA54F084FE38B12C4B0093A668C9
:10C8D0002148264965220123B04729480AAF011D96
:10C8E00054F0B6FE13AE00212122384665F088F9D7
:10C8F00000214122304665F083F91A4995F88920D4
:10C90000384665F059F91A4995F88A20304665F09D
:10C9100053F91C4B104815498DE8880095F889306B
:10C920000293039695F88A300493A4687322002337
:10C93000A047AA2000F088F954F088FE09E00648D4
:10C94000114B0093846806498B220123A04700F015
:10C9500037F925B0F0BD00BF800200200A6C0E1030
:10C96000B16B0E10C41E0020196C0E10986B0E10C7
:10C97000841E00202B6C0E10E41E0020426C0E1052
:10C98000041F0020536C0E106D6C0E1030B5002487
:10C9900085B0054602A920460294ADF80C4024F06B
:10C9A0003FFC0F492A4602A854F0D8FD0D4B0093D6
:10C9B0000D48234641F28831224637F027FD0B4BC4
:10C9C000186050B90A480B4B009384680A49CE227C
:10C9D0000223A0474FF0FF3000E0204605B030BDF5
:10C9E000C86C0E102DC80710846C0E10081D002096
:10C9F00080020020946C0E10A76B0E1008B5054A3B
:10CA00000548F32139F004FB044BAB2283F88D2059
:10CA100008BD00BF28720E10FF6C0E10841E00208F
:10CA200037B5114C114A01910346207802AD02EB53
:10CA300080101946402245F8080D65F0BDF80C4BF2
:10CA4000694618680522002337F01AF9012808D131
:10CA500023780522013393FBF2F202EB82029B1A48
:10CA60002370012003B030BD7B1E0020181D002064
:10CA70005C1E002013B5134B1B6863B19B6853B158
:10CA8000984740B11048114B009384681049DA224E
:10CA90000223A04714E00F4C0F4A238801339BB2B6
:10CAA000132B88BF0023238023880020D15CA17032
:10CAB00055F02AF9A378094A013BD15C0131D154E0
:10CAC00002B010BD0C1D0020A40200201D6D0E1030
:10CAD0004F720E10621E0020900200206C1E00207B
:10CAE00010B541884B0B022B024601D0072B30D1E9
:10CAF000023B012B12D8C1F3432111F0080F14BFE0
:10CB000020231023CC0748BF1033880744BF0833C5
:10CB10009BB2490703D518339BB200E010239479E8
:10CB200014F0400F0CBF00210221D018084404F07B
:10CB30003F0420F001000119074B21F00301891A7D
:10CB400012881B68511ADB6814FA81F1984701209A
:10CB500010BD002010BD00BF0C1D00201FB500241B
:10CB6000104B0094186803212346224637F076FCC8
:10CB70000D4B1B6813B12046214698470B4B0C4ABE
:10CB80009B780C480C498DE80C000C4A13444FF478
:10CB90002C7213F8013C029384680023A04704B070
:10CBA00010BD00BF7C1E0020141F0020621E00204C
:10CBB0007C6E0E10A402002016720E106C1E002057
:10CBC00013B50020FFF756FF064B1C6836F0D2FA6B
:10CBD0000023024600932046012137F03FFC02B0BB
:10CBE00010BD00BF7C1E00201FB5114B186855F00A
:10CBF00029FF002055F062FF0E4B0020197855F0F8
:10CC000001F855F0E1FE0C4B0C48009384680C4988
:10CC10004FF431720023A0470A4B0022186802A982
:10CC2000134637F0D1F90128F6D0002004B010BD2A
:10CC3000581E00207A1E0020A36E0E10A4020020B1
:10CC4000F46C0E105C1E0020014B83F88D007047C1
:10CC5000841E0020014B1878704700BF141D00206F
:10CC6000014B1870704700BF141D002037B5164CDB
:10CC7000206818B137F018FB00232360134D286893
:10CC800038B10024009405212246234637F0E6FB04
:10CC90002C600F4D286838B10024009405212246ED
:10CCA000234637F0DBFB2C600A4A1368144613B1A5
:10CCB0005B6803B19847084A00231360074A236062
:10CCC000137003B030BD00BF5C1E00207C1E00202E
:10CCD000681E00200C1D0020141F0020601E002074
:10CCE000F0B53C4E3C4D346885B06CB93B4B00937D
:10CCF00028460223AF683A494FF43C72B847394B93
:10CD000020461C6036F050F900210B464FF0FF32F0
:10CD1000306837F059F9344B0093AC682E483049ED
:10CD200040F2F5220023A04730480021902264F011
:10CD300067FF0024AE2C16D0AB2C14D02C4B02A9CC
:10CD400018684FF0FF32002337F03EF9012803D175
:10CD500002980399FFF7C4FE244B93F88D40AA2C48
:10CD600001D0AF2CE6D1FFF73FFF224B0093AF6815
:10CD700019481B49002340F20B32B84704F1520313
:10CD8000DBB2012B02D8FFF771FF0AE01A4BAB2C84
:10CD90001B6802D12BB1022001E013B10120002158
:10CDA0009847164B009333680193AC680A480C49C6
:10CDB00040F21B320023A04700210B460A46306890
:10CDC00036F05EFF074B0020186036F0EDF805B036
:10CDD000F0BD00BF101D0020A402002022700E1024
:10CDE00001720E10801E00206B700E10841E002039
:10CDF0005C1E002090700E10141F0020B7700E10E3
:10CE00002DE9F743344B91461A7807460E4698466B
:10CE10003AB13248324B00938468324940F247328B
:10CE200013E0314C23680BB9304B2360304D2B6835
:10CE300073B9012036F0DAFF286048B927482D4B36
:10CE400000938468274940F252320223A0473DE014
:10CE5000294D2A6882B90420082136F0DDFE2860B9
:10CE600038B91E48254B009384681E4940F25A3257
:10CE700015E0234937F0F4F9224D2B6893B9224A83
:10CE800000922248C821012237F0C0FA286048B930
:10CE900012481F4B0093846812494FF45A720223C0
:10CEA000A04711E01B4BC3F80090236823B901236E
:10CEB00088F8003000200AE01B68002BF7D03846C5
:10CEC000314698470028F2D0FFF7D0FEFF2040B24D
:10CED00003B0BDE8F08300BF601E0020A402002064
:10CEE000D8700E1034720E100C1D0020B86C0E108D
:10CEF000101D0020E7700E105C1E00200A710E103D
:10CF000029710E107C1E002075CA071037710E1093
:10CF10000C6F0E10141F00202DE9FF41544D2C689A
:10CF200006466CB1204636F0A5F8524B524A0092A4
:10CF300001909C685149184640F2813202230FE06B
:10CF40004F4F384654F084FC3B78022B0AD14D4AAF
:10CF500048484A498DE80C00846840F28932012330
:10CF6000A04719E04FF004080195CDF80080029425
:10CF70000394454845494FF48062234635F024FF29
:10CF8000012805460AD0424B3A48009384683B4941
:10CF900040F293320223A047FF2065E03D4F384620
:10CFA00055F02EFD38683C4F20F4C02020F02000C2
:10CFB00040F4805055F046FD284655F07FFD374936
:10CFC000204654F0E1FD2946204654F01BFE34482B
:10CFD00055F0DAFC42463846214664F011FE314BEA
:10CFE000DFF8D8801978B970204654F08DFE2146BC
:10CFF0000E22404664F004FEBB78013B18F8032083
:10D00000013208F80320284B1F6836F0B3F800946B
:10D01000024629463846234637F020FA1EB3234BF2
:10D0200000934FF47A71234622462148714337F02A
:10D03000EDF9204B18601C4640B91F4B0D4800937A
:10D0400085680E4940F2BA320223A847256836F0B7
:10D0500091F800240246009428460121234637F027
:10D06000FDF9204600E0304640B204B0BDE8F08152
:10D07000801E0020A40200204C710E10D86C0E10EF
:10D08000181F002073710E10E1CC0710AA710E104A
:10D09000B0710E10581E0020621E00207A1E002063
:10D0A00021CA0710900200207C1E0020FDC9071035
:10D0B000D4710E10681E0020E4710E106C1E00204A
:10D0C000024BAF2283F88D2000207047841E002081
:10D0D0002DE9F843194C089E099D904694F8892043
:10D0E00089461F465AB118B104F1400164F064FD4D
:10D0F000B9F1000F03D094F8893089F8003094F822
:10D100008A2052B1B8F1000F03D040460B4964F0B9
:10D1100053FD17B194F88A303B70D4F8801051B1A8
:10D120002EB1064B3046D3F8842064F045FD15B18E
:10D13000D4F884302B700020BDE8F883841E0020D2
:10D1400030B5BBB00546002141220DA864F058FD62
:10D1500004A80021212264F053FD0024012D8DF844
:10D160000E408DF80F4002D0022D39D136E00DF17E
:10D170000E010DAA0DF10F030094019404A8FFF70E
:10D18000A7FF9DF80E20204604A954F04BFC9DF803
:10D190000F200AB320460DA955F046FA9DF80F203E
:10D1A00002F0EF030A2B0AD002F0F703052B13D18C
:10D1B0001EA80DA98DF8E02064F0FEFC06E05208E0
:10D1C0000DA81EA98DF8E02057F08CFA00201EA9AA
:10D1D0008DF8E40055F03EFB55F036FFFFF746FDB5
:10D1E0003BB030BD002008B501460A4AFFF708FEF3
:10D1F000002802DA084838F00BFF0020FFF78CFE09
:10D20000002802DA054838F003FF0020BDE8084096
:10D2100035F0CABE41D1071063720E107D720E1038
:10D220001FB5002404238DE81800029403940948D4
:10D2300009494FF40072234635F0C6FD012808BFA6
:10D24000204604D0054838F0E3FE4FF0FF3004B02C
:10D2500010BD00BFE5D107109F720E10AA720E100C
:10D2600008B5FFF72DFF002008BD00007FB540B9CD
:10D270000C480D490D4B40F2D62238F0C9FEF12082
:10D280000CE02923019006A88DF80D30084B40F8DA
:10D29000183D68468DF80C1002F078FE40B207B0D9
:10D2A0005DF804FBC2720E10EA720E1006730E10C7
:10D2B00085EA071030B589B00023044601930D4676
:10D2C00021B93848384940F28D1205E00B6040B969
:10D2D0003448364940F28F12354B38F099FEF12030
:10D2E0005DE0037803F0F003102B036906D12BB93E
:10D2F0004369002B0CBFF220F52050E043B92948C8
:10D300002C492B4B40F29B1238F082FEF52046E070
:10D31000207A43B20B3342DB04F1100001A9E26929
:10D320000AF066FA013039D0237803F0F003102BAD
:10D33000019B1FD194F82020120700D55BB90394FC
:10D340000BB11B8900E0012308A805931A4B40F894
:10D35000183D02F01BFE019A52B9E36A13B1204650
:10D360000121984720460121FFF780FFF22016E0B7
:10D3700012890AE033B90B4810490D4B40F2D31221
:10D3800038F046FE019B1B681A89E36A13B12046F8
:10D3900001219847019B2B60002000E0FD2040B256
:10D3A00009B030BDC2720E1043730E1061730E10BF
:10D3B00006730E107C730E10C5E80710328F0F1025
:10D3C00030B50D4687B0114600F07AFF04460028BC
:10D3D00035D0019006A81C4B40F8183D68468DF8E2
:10D3E0000C5002F0D3FD60B363682BB117481849A5
:10D3F000184B5B2238F00CFE23692BB913481649F1
:10D40000144B5C2238F004FE63692BB10F481349BA
:10D41000104B5E2238F0FCFDE3682BB90B48104935
:10D420000C4B612238F0F4FD04F10C000AF0F2FA22
:10D4300004F110000AF088F9204604F0AFFB002048
:10D4400000E0204607B030BD15E20710C2720E1092
:10D450009B730E1006730E10BC730E10D1730E105A
:10D46000F2730E1030B5044687B080B101902923C5
:10D4700006A88DF80D30084B40F8183D684602F0BC
:10D4800085FD054620B9204600F064FF00E000E07D
:10D49000284640B207B030BDF5E407107FB518B993
:10D4A00010481149A82203E039B90E480F49A922B2
:10D4B0000F4B38F0ADFDF12010E01AB909480D49C5
:10D4C000AA22F5E7019006A88DF814300A4B40F81F
:10D4D000183D68460391049202F058FD40B207B02F
:10D4E0005DF804FBC2720E100B740E1029740E103E
:10D4F00006730E1047740E10C9E907107FB538B9CE
:10D500000B480C490C4BCD2238F082FDF1200AE08B
:10D51000019006A8094B40F8183D68460391ADF804
:10D52000102002F033FD40B207B05DF804FB00BFED
:10D53000C2720E1065740E1006730E10EDE5071022
:10D540007FB538B90B480C490C4BEC2238F060FD24
:10D55000F1200AE0019006A8094B40F8183D684602
:10D560000391ADF8102002F011FD40B207B05DF854
:10D5700004FB00BFC2720E1080740E1006730E10F2
:10D580005DE607107FB540B90A480B490B4B40F2E6
:10D59000091238F03DFDF12007E0019006A8084B84
:10D5A00040F8183D684602F0F1FC40B207B05DF863
:10D5B00004FB00BFC2720E109E740E1006730E1094
:10D5C00035E707107FB540B90A480B490B4B40F2CD
:10D5D000251238F01DFDF12007E0019006A8084B48
:10D5E00040F8183D684602F0D1FC40B207B05DF843
:10D5F00004FB00BFC2720E10BF740E1006730E1033
:10D6000079E7071073B504460D4621B91F48204934
:10D6100040F2491206E000260E6040B91B481D4941
:10D6200040F24B121C4B38F0F3FCF1202AE0436926
:10D6300023B9164819494FF4A672F3E7007A43B2AA
:10D640000B331FDB04F1140001A9E2690AF0D0F8E2
:10D65000013016D0E36A1BB12046012132469847BB
:10D66000019B5BB90AF002FA94F908300B33A4BFAE
:10D67000F42323720AF004FAF42003E02B60002064
:10D6800000E0FD2040B202B070BD00BFC2720E10BB
:10D69000DC740E10FC740E1006730E1019750E104B
:10D6A00008B540B1037803F0F003102B03D1BDE8B7
:10D6B0000840FFF7FFBD0549054B06484FF4F972D6
:10D6C00038F0A6FC6FF00E0008BD00BF61730E10AD
:10D6D00006730E10C2720E1073B505460E4621B9C0
:10D6E0002548264940F2072206E000230B6040B996
:10D6F0002148234940F20922224B38F089FCF120CD
:10D7000037E0026942B91C481F491E4B40F20A2209
:10D7100038F07EFCF5202CE0027802F0F002102AAE
:10D7200025D10193194BD88904F0A8FB0446E0B138
:10D73000284601A9FFF7BEFD054620B1204604F0AA
:10D740002DFA284615E0019B33B90B4810490D4BC3
:10D7500040F21E2238F05CFC019B23600020019BFC
:10D760006360A081A060346003E0FF2001E0FFF768
:10D77000A1FD40B202B070BDC2720E1043730E1014
:10D7800061730E1006730E107C730E106C840E10F5
:10D79000129A0E107FB588B1037803F0F003102BB6
:10D7A0000CD190F820301B0708D5019006A8054B36
:10D7B00040F8183D6846039102F0E8FB07B05DF8B9
:10D7C00004FB00BFC5E807107FB540B90A480B4904
:10D7D0000B4B40F2762238F01BFCF12008E0019060
:10D7E00006A8084B40F8183D6846039102F0CEFBAE
:10D7F00040B207B05DF804FBC2720E103C750E100B
:10D8000006730E1041E8071070B586B015460A9CE5
:10D8100040B91E481E491F4B40F2972238F0F8FBD2
:10D82000F12030E0027802F0F002102A07D01A4905
:10D83000184B16484FF4267238F0EAFB22E00DB977
:10D84000002020E090F82020920754BFC3F380020C
:10D85000012202F0FF0602B1A4B1019006A88DF8E2
:10D8600014300E4B40F8183D68460391049502F0C1
:10D870008DFB40B9002CE3D016B1049B236002E07D
:10D880002560DDE7FA2040B206B070BDC2720E100E
:10D8900057750E1006730E1073750E1025E90710DC
:10D8A000002A0CBF0023022300290CBF194643F0B5
:10D8B0000101FFF7DBBC000010B586B020B91748A6
:10D8C00017494FF4527204E041B91448154940F227
:10D8D0004932154B38F09CFBF1201CE00DF103039D
:10D8E000059301AB0391029000211846049309F0BF
:10D8F000F1FF04468DF8030068B9012202A90B4824
:10D9000002F018FB214604980AF016F804980AF071
:10D9100081F89DF8030040B206B010BDC2720E102F
:10D9200095750E10B9750E1006730E1035EB0710B5
:10D93000D36811B9FA21197004E0002018705368F7
:10D940000968196090680AF051B800002DE9F041AB
:10D950000D46044630B9394839493A4B4FF4BA724A
:10D9600038F056FB002666600AF080F825720AF04F
:10D9700087F8E36A677866701BB120460421324657
:10D980009847E36A1BB1002120460A469847E36A9C
:10D990001BB12046022100229847236923B104F1DC
:10D9A0001000002109F000FF636923B104F11400A5
:10D9B000002109F0F9FE012F02D0033F012F2FD8DB
:10D9C00094F8203023F004025B0784F8202032D43E
:10D9D000A36A33B919481C491A4B40F29F1238F018
:10D9E00017FBA36A1D71A36A1B6803F10C06DB68B1
:10D9F00033B912481549134B4FF4D17238F008FB74
:10DA00000023A3620AF032F894F908300B33A8BF60
:10DA100025720AF035F83046BDE8F04109F0E6BF5E
:10DA2000A36A43B105480A49064B40F2A912BDE872
:10DA3000F04138F0EDBABDE8F08100BFC2720E10BF
:10DA4000D67B0E10DD750E101A760E1034760E1081
:10DA50004D760E102DE9F041054616461F46BDF8DD
:10DA600018800C4629B91F481F49204BA62238F0C0
:10DA7000CFFA2DB91B481E491C4BA72238F0C8FA13
:10DA80006B68A34205D017481A49184BA92238F0F1
:10DA9000BFFA2B6923B93046BDE8F0410AF0C0B89F
:10DAA000154BD88904F0EAF904460028F3D0066043
:10DAB000466007B13F68A760A4F80C80214605F1D5
:10DAC0001000368909F070FE014620B12046BDE8FD
:10DAD000F04101F049B8EB6A13B128463246984745
:10DAE000BDE8F081C2720E1067760E10DD750E1063
:10DAF00089760E10A8760E106C840E10F8B50F46BD
:10DB000014460546002830D00369002B2DD011891A
:10DB1000042000220AF0E0F8064630B321460AF05D
:10DB200073FA18B130460AF07BF81EE0104BD88922
:10DB300004F0A4F904460028F4D00E4B2660666079
:10DB40001B69A3603B7CA381214605F11000368947
:10DB500009F02AFE014618B1204601F005F804E05C
:10DB6000EB6A13B12846324698470020F8BD00BF43
:10DB70006C840E100C28002010B544680146204625
:10DB800004F098FE2046094904F096FE2046084914
:10DB900004F0A8FE20460749022204F0D1FE2046E8
:10DBA0000549BDE8104004F0B3BE00BFF5E0071022
:10DBB000A9E107107DE007104DD90710F8B516460A
:10DBC0000446002852D04378032B06D02A482B491C
:10DBD0002B4B40F26A4238F01BFAA36A53B994F80F
:10DBE00020305B0706D424482649254B40F26C427E
:10DBF00038F00EFAA56A1DB12E71A36A1D680C35A6
:10DC0000237803F0F003102B03D116B92046FFF759
:10DC1000B3FF94F8203083F00406C6F3800623F0A7
:10DC2000040384F820300EB145B900E035B1124844
:10DC30001549134B40F2794238F0EAF90027A76200
:10DC4000677009F013FF94F908300B33A8BF2772EF
:10DC500009F016FFE36A1BB1204602210022984713
:10DC600036B1284609F0C2FE002002E0FA2000E0AA
:10DC7000304640B2F8BD00BFC2720E10C6760E101C
:10DC8000DD750E10E5760E1022770E102DE9F041AD
:10DC9000044630B96D486E496E4B40F2955238F0EB
:10DCA000B7F96378012B06D068486B49694B40F29D
:10DCB000965238F0ADF9A36A33B964486749654BA9
:10DCC00040F2975238F0A4F9636833B95F48644969
:10DCD000604B4FF4B36238F09BF9A26A636AD26872
:10DCE000934206D359485F495A4B40F29A5238F052
:10DCF0008FF994F82030626A13F0020FA36A08BF0C
:10DD00001F7C99681E7CD8686368C2EB00055B6F56
:10DD10000CBFC7F38007012701EB0208B5F5803F70
:10DD20004FF6FE7126BF46F002064FF6FF75ADB204
:10DD30008B42FFB209D89BB2AB4206D217B11D4647
:10DD4000D3B102E046F002061D462A44824206D9BB
:10DD50003E4845493F4B40F2C65238F059F93346E8
:10DD6000606841462A460AF0E1FB431CDBB2012B06
:10DD700006464CD897B100E0F926A36ADB689D42BD
:10DD80000CD2E36A1BB1204603212A46984794F837
:10DD9000203043F0100384F820300EE063685A6F9F
:10DDA000B2F5405F03D9B3F87830202B05D9E36A88
:10DDB0001BB1204603212A469847BEB9636A1D4419
:10DDC000A36A6562DA689542324600D01FB1DD6011
:10DDD0006262012500E0354660680AF00BFF10F131
:10DDE0000B0F03460FDB043016D10CE073B2013386
:10DDF0000DD167B960680AF0FDFE10F10B0F034604
:10DE000001DB021D1FD1A26A0021D16019E0A36AC3
:10DE10000022DA60334614E0ADB1A36A1D681E71BA
:10DE20000023A362637009F021FE94F908300B33DC
:10DE3000A8BF267209F024FE05F10C0009F0D6FDFA
:10DE400001E01E46E9E70020BDE8F081C2720E1035
:10DE5000D67B0E10DD750E103F770E101A760E1061
:10DE60005C770E1072770E10A4770E102DE9F04734
:10DE7000044630B976487749774B4FF4457238F00D
:10DE8000C7F8237803F0F003102B06D070487349CD
:10DE9000714B40F2153238F0BBF86378042B06D092
:10DEA0006B486F496C4B40F2163238F0B1F863683A
:10DEB00033B967486B49684B40F2173238F0A8F81D
:10DEC000A36A33B962486849634B4FF4467238F02D
:10DED0009FF8A36A65681B7A03F00207032B03F01F
:10DEE0000109FFB25BD0B9F1000F05D02B7E5A1F9C
:10DEF000012A54D9082B52D04FB1B5F81E8008F032
:10DF000010081FFA88F3002B49D1984600E0B84664
:10DF10002B7E012B07D12846002104F00FFDB8F11C
:10DF2000000F1CD11FE0B9F1000F07D028460021D7
:10DF300004F0C2FC2846002104F000FD1FB1284671
:10DF4000002104F0CFFCB8F1000F0CD000212846CE
:10DF50000A4604F0F5FC2846002104F0D9FC2846C6
:10DF600004F0F4FF04E0284649463A4605F08BF8F1
:10DF70000646E0B143B2013319D194F820309B0733
:10DF800014D4A36A93F809A0BAF1000F3FD1B8F1F5
:10DF9000000F0CD0284605F019F9564607E0284630
:10DFA000002104F087FC4FF00108B1E7F926A36ACD
:10DFB0001D681E710023A3626370CEB9B8F1000F13
:10DFC00006D0E36A66601BB12046042132469847BA
:10DFD000B9F1000F05D0E36A1BB1002120460A46C3
:10DFE00098472FB1E36A1BB12046022100229847CF
:10DFF00009F03CFD94F908300B33A8BF267209F0F4
:10E000003FFD05F10C0009F0F1FC00201CE02B7E27
:10E01000012B06D10E4815490F4B40F2B93237F0AB
:10E02000F7FF1FB12846124904F05CFC0122284684
:10E03000104904F085FC28460F4904F069FC284685
:10E04000214604F037FCFF2040B2BDE8F08700BF56
:10E05000C2720E104A750E10DD750E10CF770E10BD
:10E06000ED770E1011780E101A760E1024780E101F
:10E07000A9E107107DE007104DD9071010B504463F
:10E0800030B9194819491A4B40F2271237F0C0FF2E
:10E090006378012B03D12046FFF7F8FD0AE0042B3B
:10E0A00008D1A36A1BB15A7A0AB1013A5A722046C2
:10E0B000FFF7DCFE94F82020D30613D563688BB1FC
:10E0C000596FB1F5405F0DD9B3F87830202B09D8DE
:10E0D000E36A22F0100284F820201BB120460221BE
:10E0E00000229847002010BDC2720E10D67B0E1081
:10E0F000DD750E102DE9F041044615461F460E460B
:10E1000029B924482449254BE82237F081FF3CB93E
:10E1100020482349214BE92237F07AFFFA250FE006
:10E120006368B34205D01B481E491C4BEF2237F0F1
:10E130006FFFD4F81080B8F1000F0CD11DB9002585
:10E1400068B2BDE8F0813046298904F04BFB2846CF
:10E1500009F066FDF3E747B109F088FC94F908304F
:10E160000B33A8BF277209F08BFC0DB12E8900E09C
:10E170002E46294604F1100009F016FB054638B971
:10E18000E36A002BDBD02046294632469847D7E782
:10E19000FF25D5E7C2720E1047780E10DD750E1000
:10E1A00069780E1088780E1038B51546044630B9D7
:10E1B00015481649164B4FF4A87237F029FF6378BB
:10E1C000012B03D12046FFF761FD04E0042B02D1AF
:10E1D0002046FFF74BFE63689BB15A6FB2F5405F74
:10E1E0000FD9B3F87830202B0BD894F8203023F0D7
:10E1F000100384F82030E36A1BB1204602212A462E
:10E200009847002038BD00BFC2720E10D67B0E109A
:10E21000DD750E1038B50023056803716B68044680
:10E22000002B35D12B7803F0F003202B0FD0402B9F
:10E2300002D0102B25D11BE0007A04F097F968601A
:10E2400022685068F8B11C4904F016F91BE007F089
:10E2500051F8686022685368ABB112781749222AD6
:10E2600004BF01221A742268506807F029F80AE0F6
:10E2700005F09CF868602068436823B1FFF77CFCD8
:10E2800001E0FA2303E023685B680BB9FF232371E5
:10E29000236853B109F0EAFB236893F908200B3295
:10E2A000A4BF22791A7209F0EBFB2068BDE8384060
:10E2B0000C3009F09BBB00BFFDDA071055DA0710E0
:10E2C000204B70B50546188A0E4603F0D7FD002393
:10E2D0000446002834D003720570436005F0F00056
:10E2E00020280BD0402809D0102807D01649174BFA
:10E2F000174840F2772237F08BFE1CE004F110053E
:10E300001021284609F002FA0146A0B904F10C00D8
:10E3100009F0E0FA18B1284609F016FA0BE04FF0C0
:10E32000FF3260616070A261E662A0626062E061DB
:10E3300084F8200004E0204603F030FC002070BD8B
:10E34000204670BD6C840E10A6780E10DD750E1080
:10E35000C2720E1010B54368044633B11148124919
:10E36000124B40F2AF2237F053FE236933B10D4810
:10E370000F490E4B40F2B12237F04AFE636933B1C8
:10E3800008480C49094B4FF42D7237F041FE04F157
:10E390000C0009F03FFB0023E3602046BDE810407D
:10E3A00003F0FCBBC2720E10CC780E10DD750E109F
:10E3B000FA780E1034790E1037B5036904460BB3A2
:10E3C00004F11005284601A909F06AFA013014D0B9
:10E3D000237803F0F003102B0BD1019D002DEFD01B
:10E3E000606810B1298904F0FDF9284609F018FC8D
:10E3F000E6E7019800F0B8FBE2E7284609F0A4F947
:10E4000000232361636933B304F11405284601A98D
:10E4100009F046FA013019D06368019D4BB11B7EAB
:10E42000012B06D00D480E490E4B4FF43C7237F0CD
:10E43000EFFD2846FFF7C0FF686818B104F0C6FE7C
:10E4400000236B602846FFF785FFDDE7284609F0CB
:10E450007BF90023636103B030BD00BFC2720E10B0
:10E4600070790E10DD750E10F8B5436906460F463B
:10E470001546002B39D00078F16AFFF721FF0446DA
:10E48000002834D04760FFF777FB257206F11400AF
:10E49000214609F089F9054600B365680021284640
:10E4A00004F008FA2846002104F006FA2846002164
:10E4B00004F018FA00210A46284604F041FA2846DA
:10E4C0000021002504F024FA04F11000656009F031
:10E4D0003BF925612046FFF73DFF08E0F36A3BB1B9
:10E4E000304629462A46984702E0FA2500E0FF25F3
:10E4F00068B2F8BD38B503685D780446A5B11B78ED
:10E5000003F0F003102B06D034483549354B40F268
:10E51000D53237F07DFD022D06D0032D59D1236869
:10E5200093F820305B0754D5002520682571FFF74C
:10E5300043FF2368586860B31A7802F0F002202A7B
:10E5400007D0402A02D0102A20D108E003F0F8FFBB
:10E550001CE0C5612368586806F0B6FE16E09A6AAA
:10E560000AB95B6A33B11D481F491E4B40F209428C
:10E5700037F04EFD236804225A7003232372236868
:10E580009C622068BDE83840FFF770BC2368002219
:10E590005A602068C36A13B100210A469847206870
:10E5A000C36A13B10221002298472368DB689BB13C
:10E5B00009F05CFA236893F908200B32A4BF227992
:10E5C0001A7209F05DFA2068BDE838400C3009F095
:10E5D0000DBAFB232371E8E738BD00BFC2720E10ED
:10E5E0009D790E10DD750E10B1790E1010B503680F
:10E5F0001A7A51B20B31044601DA02711AE0FA229A
:10E6000002715868B0B11B7803F0F003202B0CD0D6
:10E61000402B06D0102B0DD1A168A28904F006F87A
:10E6200007E0A16803F016FF03E0A168A28906F0E5
:10E63000FBFC2071236853B109F018FA236893F9A1
:10E6400008200B32A4BF22791A7209F019FA206847
:10E65000BDE810400C3009F0C9B9000010B50368DE
:10E660000446586808B9F22347E01A7802F0F0022D
:10E67000202A08D0402A02D0102A36D109E0A16809
:10E6800003F0F1FE03E0A168A28906F0E9FD207124
:10E6900034E05A78032A01D1F7232EE00AB1F62399
:10E6A0002BE01846FFF768FA2368A1685868A2892A
:10E6B0001C4B04F08DFE207100BB2368032193F8EE
:10E6C00020205970236812F0020F93F8202005D003
:10E6D00042F0040283F82020FB230EE022F0040223
:10E6E00083F8202023689C6210BD0F4B0F4810490F
:10E6F00040F2C24237F08CFCFA232371236853B1F5
:10E7000009F0B4F9236893F908200B32A4BF2279E9
:10E710001A7209F0B5F92068BDE810400C3009F014
:10E7200065B900BFBDDB0710DD750E10C2720E109B
:10E73000CC790E1010B503681A7802F0F002202A86
:10E74000044604D1586806F0B3FD002300E0FA2324
:10E750002371236853B109F089F9236893F90820DC
:10E760000B32A4BF22791A7209F08AF92068BDE839
:10E7700010400C3009F03AB970B503681A7A51B2FA
:10E780000B31044601DA027144E0F5220271586847
:10E7900000283FD01A7802F0F002102A38D15B78B6
:10E7A000002B37D1067E0EB1FA2332E0FF2103F0B1
:10E7B00091FF054608B9FF232BE02068036923B1C8
:10E7C000103008F0C1FF23681E6100232068237108
:10E7D000436923B91430102108F098FF207194F98F
:10E7E000043073B9236802225A7023685D6021687F
:10E7F000486804F05FF823681049586804F09EF8F0
:10E8000008E0284604F0A2FB236800225A6001E0D9
:10E81000F1232371236853B109F028F9236893F990
:10E8200008200B32A4BF22791A7209F029F9206856
:10E83000BDE870400C3009F0D9B800BF69E407109A
:10E8400010B503681A7A51B20B31044601DA02712D
:10E8500025E0F5220271586808B31B7803F0F00335
:10E86000202B0FD0402B1AD1A36813F1080201D03E
:10E87000996819B9196803F05FFE0FE0196803F091
:10E88000FFFD0BE0A3689A68196812B906F0E4FC72
:10E8900004E003F108029B8906F0BEFC20712368A6
:10E8A00053B109F0E3F8236893F908200B32A4BFB1
:10E8B00022791A7209F0E4F82068BDE810400C30A3
:10E8C00009F094B870B50023037103685A680446D0
:10E8D0006AB92368FBB109F0C9F8236893F90820E5
:10E8E0000B32A4BF22791A7209F0CAF813E01B7820
:10E8F00003F0F003102BECD18568B5F5803F236859
:10E9000034BFAEB24FF6FF765868314603F06AFF67
:10E91000AD1BF2D1DDE72068BDE870400C3009F096
:10E9200065B8000010B503681A7A51B20B3104467D
:10E9300001DA02712FE01A7802F0F002102A28D1D1
:10E940005A780AB1FB2325E05A6802B301225A70B3
:10E9500003689A6A0AB95B6A33B117481749184BBA
:10E9600040F22F6237F054FBE36833B9124815497F
:10E97000134B4FF4C66237F04BFB23689C6223684D
:10E9800000225A622068BDE81040FFF77FB9F523E6
:10E9900000E0FA23237109F069F8236893F908204D
:10E9A0000B32A4BF22791A7209F06AF82068BDE818
:10E9B00010400C3009F01AB8C2720E10B1790E1066
:10E9C000DD750E10E1790E1010B503685B68044622
:10E9D000002B3BD0017C826809B11B6800E05B68BA
:10E9E00013600023237123681A7802F0F002202AB2
:10E9F0000AD0402A02D0102A20D112E0227C2AB369
:10EA00005B68E2681B7C0AE0227C5B6812B1E2680A
:10EA10005B8A04E01A7C520718D5E2689B8A13804F
:10EA200016E0227C5B6812B9197E01290ED9E168D3
:10EA30000AB15B8B00E09B8B0B8009E00E490F4B0A
:10EA40000F4840F2866237F0E3FA01E0F5232371C4
:10EA5000236853B109F00AF8236893F908200B32B0
:10EA6000A4BF22791A7209F00BF82068BDE81040A3
:10EA70000C3008F0BBBF00BFF5790E10DD750E102D
:10EA8000C2720E1010B504460068426843785AB14D
:10EA9000027802F0F002102A06D1227A032A01D06D
:10EAA000022B01D0032B01D1F52302E0012B1AD157
:10EAB000FB23237108F0DAFF236893F908200B3257
:10EAC000A4BF22791A7208F0DBFF23682BB308F089
:10EAD000CDFF236893F908200B32A4BF22791A7264
